{
  "_format": "hh-sol-artifact-1",
  "contractName": "nUSD",
  "sourceName": "contracts/nUSD.sol",
  "abi": [
    {
      "inputs": [],
      "stateMutability": "nonpayable",
      "type": "constructor"
    },
    {
      "anonymous": false,
      "inputs": [
        {
          "indexed": true,
          "internalType": "address",
          "name": "owner",
          "type": "address"
        },
        {
          "indexed": true,
          "internalType": "address",
          "name": "spender",
          "type": "address"
        },
        {
          "indexed": false,
          "internalType": "uint256",
          "name": "value",
          "type": "uint256"
        }
      ],
      "name": "Approval",
      "type": "event"
    },
    {
      "anonymous": false,
      "inputs": [
        {
          "indexed": true,
          "internalType": "address",
          "name": "from",
          "type": "address"
        },
        {
          "indexed": true,
          "internalType": "address",
          "name": "to",
          "type": "address"
        },
        {
          "indexed": false,
          "internalType": "uint256",
          "name": "value",
          "type": "uint256"
        }
      ],
      "name": "Transfer",
      "type": "event"
    },
    {
      "inputs": [
        {
          "internalType": "address",
          "name": "",
          "type": "address"
        },
        {
          "internalType": "address",
          "name": "",
          "type": "address"
        }
      ],
      "name": "allowance",
      "outputs": [
        {
          "internalType": "uint256",
          "name": "",
          "type": "uint256"
        }
      ],
      "stateMutability": "view",
      "type": "function"
    },
    {
      "inputs": [
        {
          "internalType": "address",
          "name": "_spender",
          "type": "address"
        },
        {
          "internalType": "uint256",
          "name": "_amount",
          "type": "uint256"
        }
      ],
      "name": "approve",
      "outputs": [
        {
          "internalType": "bool",
          "name": "success",
          "type": "bool"
        }
      ],
      "stateMutability": "nonpayable",
      "type": "function"
    },
    {
      "inputs": [
        {
          "internalType": "address",
          "name": "",
          "type": "address"
        }
      ],
      "name": "balanceOf",
      "outputs": [
        {
          "internalType": "uint256",
          "name": "",
          "type": "uint256"
        }
      ],
      "stateMutability": "view",
      "type": "function"
    },
    {
      "inputs": [],
      "name": "decimals",
      "outputs": [
        {
          "internalType": "uint8",
          "name": "",
          "type": "uint8"
        }
      ],
      "stateMutability": "view",
      "type": "function"
    },
    {
      "inputs": [],
      "name": "deposit",
      "outputs": [
        {
          "internalType": "uint256",
          "name": "nUsdAmount",
          "type": "uint256"
        }
      ],
      "stateMutability": "payable",
      "type": "function"
    },
    {
      "inputs": [],
      "name": "getEthPriceInUsd",
      "outputs": [
        {
          "internalType": "uint256",
          "name": "",
          "type": "uint256"
        }
      ],
      "stateMutability": "view",
      "type": "function"
    },
    {
      "inputs": [],
      "name": "name",
      "outputs": [
        {
          "internalType": "string",
          "name": "",
          "type": "string"
        }
      ],
      "stateMutability": "view",
      "type": "function"
    },
    {
      "inputs": [],
      "name": "owner",
      "outputs": [
        {
          "internalType": "address",
          "name": "",
          "type": "address"
        }
      ],
      "stateMutability": "view",
      "type": "function"
    },
    {
      "inputs": [],
      "name": "peggedValue",
      "outputs": [
        {
          "internalType": "uint256",
          "name": "",
          "type": "uint256"
        }
      ],
      "stateMutability": "view",
      "type": "function"
    },
    {
      "inputs": [],
      "name": "priceFeed",
      "outputs": [
        {
          "internalType": "contract AggregatorV3Interface",
          "name": "",
          "type": "address"
        }
      ],
      "stateMutability": "view",
      "type": "function"
    },
    {
      "inputs": [
        {
          "internalType": "uint256",
          "name": "_nUsdAmount",
          "type": "uint256"
        }
      ],
      "name": "redeem",
      "outputs": [
        {
          "internalType": "uint256",
          "name": "ethAmount",
          "type": "uint256"
        }
      ],
      "stateMutability": "nonpayable",
      "type": "function"
    },
    {
      "inputs": [],
      "name": "symbol",
      "outputs": [
        {
          "internalType": "string",
          "name": "",
          "type": "string"
        }
      ],
      "stateMutability": "view",
      "type": "function"
    },
    {
      "inputs": [],
      "name": "totalSupply",
      "outputs": [
        {
          "internalType": "uint256",
          "name": "",
          "type": "uint256"
        }
      ],
      "stateMutability": "view",
      "type": "function"
    },
    {
      "inputs": [
        {
          "internalType": "address",
          "name": "_to",
          "type": "address"
        },
        {
          "internalType": "uint256",
          "name": "_amount",
          "type": "uint256"
        }
      ],
      "name": "transfer",
      "outputs": [
        {
          "internalType": "bool",
          "name": "success",
          "type": "bool"
        }
      ],
      "stateMutability": "nonpayable",
      "type": "function"
    },
    {
      "inputs": [
        {
          "internalType": "address",
          "name": "_from",
          "type": "address"
        },
        {
          "internalType": "address",
          "name": "_to",
          "type": "address"
        },
        {
          "internalType": "uint256",
          "name": "_amount",
          "type": "uint256"
        }
      ],
      "name": "transferFrom",
      "outputs": [
        {
          "internalType": "bool",
          "name": "success",
          "type": "bool"
        }
      ],
      "stateMutability": "nonpayable",
      "type": "function"
    },
    {
      "inputs": [
        {
          "internalType": "uint256",
          "name": "_amount",
          "type": "uint256"
        }
      ],
      "name": "withdrawETH",
      "outputs": [],
      "stateMutability": "nonpayable",
      "type": "function"
    },
    {
      "inputs": [
        {
          "internalType": "address",
          "name": "_token",
          "type": "address"
        },
        {
          "internalType": "uint256",
          "name": "_amount",
          "type": "uint256"
        }
      ],
      "name": "withdrawToken",
      "outputs": [],
      "stateMutability": "nonpayable",
      "type": "function"
    }
  ],
  "bytecode": "0x608060405234801561001057600080fd5b506001600055600480546001600160a01b031990811633179091556005805490911673694aa1769357215de4fac081bf1f309adc325306179055611282806100596000396000f3fe6080604052600436106100fe5760003560e01c80638da5cb5b11610095578063d0e30db011610064578063d0e30db0146102f0578063d67b98a9146102f8578063db006a751461030d578063dd62ed3e1461032d578063f14210a61461036557600080fd5b80638da5cb5b1461025e57806395d89b411461027e5780639e281a98146102ae578063a9059cbb146102d057600080fd5b8063313ce567116100d1578063313ce567146101bd5780633cf252a9146101e457806370a08231146101f9578063741bef1a1461022657600080fd5b806306fdde0314610103578063095ea7b31461014957806318160ddd1461017957806323b872dd1461019d575b600080fd5b34801561010f57600080fd5b50610133604051806040016040528060048152602001631b955cd960e21b81525081565b6040516101409190610fdb565b60405180910390f35b34801561015557600080fd5b50610169610164366004610ef7565b610385565b6040519015158152602001610140565b34801561018557600080fd5b5061018f60015481565b604051908152602001610140565b3480156101a957600080fd5b506101696101b8366004610ebc565b6103f2565b3480156101c957600080fd5b506101d2601281565b60405160ff9091168152602001610140565b3480156101f057600080fd5b5061018f600281565b34801561020557600080fd5b5061018f610214366004610e70565b60026020526000908152604090205481565b34801561023257600080fd5b50600554610246906001600160a01b031681565b6040516001600160a01b039091168152602001610140565b34801561026a57600080fd5b50600454610246906001600160a01b031681565b34801561028a57600080fd5b50610133604051806040016040528060048152602001631b9554d160e21b81525081565b3480156102ba57600080fd5b506102ce6102c9366004610ef7565b610574565b005b3480156102dc57600080fd5b506101696102eb366004610ef7565b6106c2565b61018f61076d565b34801561030457600080fd5b5061018f610856565b34801561031957600080fd5b5061018f610328366004610f40565b610900565b34801561033957600080fd5b5061018f610348366004610e8a565b600360209081526000928352604080842090915290825290205481565b34801561037157600080fd5b506102ce610380366004610f40565b610a61565b3360008181526003602090815260408083206001600160a01b038716808552925280832085905551919290917f8c5be1e5ebec7d5bd14f71427d1e84f3dd0314c0f7b2291e5b200ac8c7c3b925906103e09086815260200190565b60405180910390a35060015b92915050565b6001600160a01b0383166000908152600260205260408120548211156104335760405162461bcd60e51b815260040161042a9061100e565b60405180910390fd5b6001600160a01b038416600090815260036020908152604080832033845290915290205482111561049b5760405162461bcd60e51b8152602060048201526012602482015271105b1b1bddd85b98d948195e18d95959195960721b604482015260640161042a565b6001600160a01b038416600090815260026020526040812080548492906104c39084906111cf565b90915550506001600160a01b038316600090815260026020526040812080548492906104f090849061108a565b90915550506001600160a01b0384166000908152600360209081526040808320338452909152812080548492906105289084906111cf565b92505081905550826001600160a01b0316846001600160a01b031660008051602061122d8339815191528460405161056291815260200190565b60405180910390a35060019392505050565b6004546001600160a01b0316331461059e5760405162461bcd60e51b815260040161042a9061103c565b81816105dd5760405162461bcd60e51b815260206004820152600e60248201526d125b9d985b1a5908185b5bdd5b9d60921b604482015260640161042a565b6040516370a0823160e01b81523060048201526001600160a01b038216906370a082319060240160206040518083038186803b15801561061c57600080fd5b505afa158015610630573d6000803e3d6000fd5b505050506040513d601f19601f820116820180604052508101906106549190610f58565b8211156106a35760405162461bcd60e51b815260206004820152601a60248201527f496e73756666696369656e7420746f6b656e2062616c616e6365000000000000604482015260640161042a565b6004546106bd906001600160a01b03838116911684610b19565b505050565b336000908152600260205260408120548211156106f15760405162461bcd60e51b815260040161042a9061100e565b33600090815260026020526040812080548492906107109084906111cf565b90915550506001600160a01b0383166000908152600260205260408120805484929061073d90849061108a565b90915550506040518281526001600160a01b03841690339060008051602061122d833981519152906020016103e0565b6000610777610b6b565b346107b55760405162461bcd60e51b815260206004820152600e60248201526d125b9d985b1a5908185b5bdd5b9d60921b604482015260640161042a565b6107e160026107db6107c96012600a611105565b6107db6107d4610856565b3490610bc5565b90610bd1565b3360009081526002602052604081208054929350839290919061080590849061108a565b92505081905550806001600082825461081e919061108a565b9091555050604051818152339060009060008051602061122d8339815191529060200160405180910390a36108536001600055565b90565b600080600560009054906101000a90046001600160a01b03166001600160a01b031663feaf968c6040518163ffffffff1660e01b815260040160a06040518083038186803b1580156108a757600080fd5b505afa1580156108bb573d6000803e3d6000fd5b505050506040513d601f19601f820116820180604052508101906108df9190610f70565b509193508392506108f991508290506402540be4006111b0565b9392505050565b600061090a610b6b565b336000908152600260205260409020548211156109395760405162461bcd60e51b815260040161042a9061100e565b610965610944610856565b6107db600261095f6109586012600a611105565b8790610bc5565b90610bc5565b9050478111156109c15760405162461bcd60e51b815260206004820152602160248201527f496e73756666696369656e7420636f6e7472616374206574682062616c616e636044820152606560f81b606482015260840161042a565b33600090815260026020526040812080548492906109e09084906111cf565b9250508190555081600160008282546109f991906111cf565b9091555050604051339082156108fc029083906000818181858888f19350505050158015610a2b573d6000803e3d6000fd5b50604051828152600090339060008051602061122d8339815191529060200160405180910390a3610a5c6001600055565b919050565b6004546001600160a01b03163314610a8b5760405162461bcd60e51b815260040161042a9061103c565b47811115610adb5760405162461bcd60e51b815260206004820152601d60248201527f496e73756666696369656e7420636f6e74726163742062616c616e6365000000604482015260640161042a565b6004546040516001600160a01b039091169082156108fc029083906000818181858888f19350505050158015610b15573d6000803e3d6000fd5b5050565b604080516001600160a01b038416602482015260448082018490528251808303909101815260649091019091526020810180516001600160e01b031663a9059cbb60e01b1790526106bd908490610bdd565b60026000541415610bbe5760405162461bcd60e51b815260206004820152601f60248201527f5265656e7472616e637947756172643a207265656e7472616e742063616c6c00604482015260640161042a565b6002600055565b60006108f982846111b0565b60006108f982846110a2565b6000610c32826040518060400160405280602081526020017f5361666545524332303a206c6f772d6c6576656c2063616c6c206661696c6564815250856001600160a01b0316610cb29092919063ffffffff16565b9050805160001480610c53575080806020019051810190610c539190610f20565b6106bd5760405162461bcd60e51b815260206004820152602a60248201527f5361666545524332303a204552433230206f7065726174696f6e20646964206e6044820152691bdd081cdd58d8d9595960b21b606482015260840161042a565b6060610cc18484600085610cc9565b949350505050565b606082471015610d2a5760405162461bcd60e51b815260206004820152602660248201527f416464726573733a20696e73756666696369656e742062616c616e636520666f6044820152651c8818d85b1b60d21b606482015260840161042a565b600080866001600160a01b03168587604051610d469190610fbf565b60006040518083038185875af1925050503d8060008114610d83576040519150601f19603f3d011682016040523d82523d6000602084013e610d88565b606091505b5091509150610d9987838387610da4565b979650505050505050565b60608315610e10578251610e09576001600160a01b0385163b610e095760405162461bcd60e51b815260206004820152601d60248201527f416464726573733a2063616c6c20746f206e6f6e2d636f6e7472616374000000604482015260640161042a565b5081610cc1565b610cc18383815115610e255781518083602001fd5b8060405162461bcd60e51b815260040161042a9190610fdb565b80356001600160a01b0381168114610a5c57600080fd5b805169ffffffffffffffffffff81168114610a5c57600080fd5b600060208284031215610e81578081fd5b6108f982610e3f565b60008060408385031215610e9c578081fd5b610ea583610e3f565b9150610eb360208401610e3f565b90509250929050565b600080600060608486031215610ed0578081fd5b610ed984610e3f565b9250610ee760208501610e3f565b9150604084013590509250925092565b60008060408385031215610f09578182fd5b610f1283610e3f565b946020939093013593505050565b600060208284031215610f31578081fd5b815180151581146108f9578182fd5b600060208284031215610f51578081fd5b5035919050565b600060208284031215610f69578081fd5b5051919050565b600080600080600060a08688031215610f87578081fd5b610f9086610e56565b9450602086015193506040860151925060608601519150610fb360808701610e56565b90509295509295909350565b60008251610fd18184602087016111e6565b9190910192915050565b6020815260008251806020840152610ffa8160408501602087016111e6565b601f01601f19169190910160400192915050565b602080825260149082015273496e73756666696369656e742062616c616e636560601b604082015260600190565b6020808252602e908201527f4f6e6c792074686520636f6e7472616374206f776e65722063616e2063616c6c60408201526d103a3434b990333ab731ba34b7b760911b606082015260800190565b6000821982111561109d5761109d611216565b500190565b6000826110bd57634e487b7160e01b81526012600452602481fd5b500490565b600181815b808511156110fd5781600019048211156110e3576110e3611216565b808516156110f057918102915b93841c93908002906110c7565b509250929050565b60006108f960ff84168360008261111e575060016103ec565b8161112b575060006103ec565b8160018114611141576002811461114b57611167565b60019150506103ec565b60ff84111561115c5761115c611216565b50506001821b6103ec565b5060208310610133831016604e8410600b841016171561118a575081810a6103ec565b61119483836110c2565b80600019048211156111a8576111a8611216565b029392505050565b60008160001904831182151516156111ca576111ca611216565b500290565b6000828210156111e1576111e1611216565b500390565b60005b838110156112015781810151838201526020016111e9565b83811115611210576000848401525b50505050565b634e487b7160e01b600052601160045260246000fdfeddf252ad1be2c89b69c2b068fc378daa952ba7f163c4a11628f55a4df523b3efa2646970667358221220d0dbc5b6839a87ea8881e79688bcb90795aabdeb2950854881bc022edc9502d964736f6c63430008040033",
  "linkReferences": {},
  "deployedLinkReferences": {}
}